:020000001628C0
:0E0006008312031323088A00220882000800D8
:1000140003208A110A128000840AA20A0319A30A7F
:08002400F003031D0A28080087
:10002C00013083120313A000A10102308316850056
:10003C008312051007309F00851C51288030F0007A
:10004C00803021067002031D2D2820080A3C031C59
:10005C00512805140630FB001330FC00AD30FD00B8
:10006C00FD0B3628FC0B3628FB0B36280000000055
:10007C0005100630FB001330FC00AD30FD00FD0B0D
:10008C004528FC0B4528FB0B452800000000A00A66
:0A009C000319A10A24282228522883
:02400E006A2125
:00000001FF
